:020000040800F2
:10000000785B002091430008C9050008CB05000873
:10001000CD050008CF050008D1050008000000004C
:10002000000000000000000000000000ED010008DA
:10003000D30500080000000031020008A5410008B7
:10004000AB430008AB430008AB430008AB430008D8
:10005000AB430008AB430008AB430008AB430008C8
:10006000AB430008AB430008AB430008AB430008B8
:10007000AB430008AB430008AB430008AB430008A8
:10008000AB430008AB430008AB430008AB43000898
:10009000AB430008AB430008AB43000847410008EE
:1000A000AB430008AB430008AB430008AB43000878
:1000B000AB43000885400008AB430008AB43000891
:1000C000AB430008AB430008AB430008AB43000858
:1000D000AB43000829430008AB430008AB430008CA
:1000E000AB430008AB430008AB430008AB43000838
:1000F000AB430008AB430008AB430008AB43000828
:10010000AB430008AB430008A7400008AB4300081E
:10011000AB430008AB430008AB430008AB43000807
:10012000AB430008AB430008AB430008AB430008F7
:1001300000F002F800F04BF80AA090E8000C8244AE
:100140008344AAF10107DA4501D100F040F8AFF28B
:10015000090EBAE80F0013F0010F18BFFB1A43F0A5
:1001600001031847DC9E0000FC9E0000103A24BFEB
:1001700078C878C1FAD8520724BF30C830C144BF0C
:1001800004680C607047000000230024002500264E
:10019000103A28BF78C1FBD8520728BF30C148BFEA
:1001A0000B607047642907F0CB87752907F0C88773
:1001B000782908F00180632908F03F81732908F04D
:1001C0004481002070471FB51FBD10B510BD08F059
:1001D000D2F91146FFF7F7FF00F059F908F0F0F9EE
:1001E00003B4FFF7F2FF03BC04F048F8224B196890
:1001F0000868B0E8F00F80F30988BFF36F8F4FF005
:10020000000080F311884EF00D0E704700000000D2
:1002100006480068006880F3088862B661B6BFF3DC
:100220004F8FBFF36F8F00DF00BF00BF08ED00E00E
:10023000EFF30980BFF36F8F0F4B1A6820E9F00FBF
:10024000106008B54FF0500080F31188BFF34F8F56
:10025000BFF36F8F06F0AAFB4FF0000080F3118808
:10026000BDE8084019680868B0E8F00F80F3098815
:10027000BFF36F8F704700BF80000020EFF3058051
:10028000704700001CB5954D00244FF49D732C80E1
:10029000EA226E217D2003F018FD8223EA2219460E
:1002A0007D2003F0C0FC1F20288010258CA0CDE904
:1002B00000502B466E226F217E2003F056FE8C4E9E
:1002C000DFF8309280274FF00E0840F2391A4FF4D1
:1002D0007A7B641CD6F88801E4B210B30020C6F81B
:1002E0008801214684A007F0ADFECDE90057032325
:1002F00022466F21CE2003F0F7FDB4FBF8F108FB96
:100300001140C0F10D01534639F82100E92280B2B5
:10031000009083217E2003F022FC584606F07AFAF2
:10032000D7E70120DBE71CB56C4D00244FF49D732B
:100330002C8073226E21052003F0C7FC82237322D8
:100340001946052003F06FFC1F202880102570A09F
:10035000CDE900502B466E226F21062003F005FEEA
:100360006F4EDFF890810E2740F2391A4FF0800966
:100370004FF47A7B641CD6F8A001E4B200B30020ED
:10038000C6F8A001214667A007F05CFEB4FBF7F0B9
:1003900007FB1041534638F82100722280B20090CA
:1003A0008321062003F0DBFBCDE90059032322461D
:1003B0006F21562003F098FD584606F02BFAD9E736
:1003C0000120DDE71CB54B4D0024103D1826002010
:1003D00000F0FFF9022822D003281CD14CB10024E0
:1003E0004CB1A86806F00CFB53A007F02BFE57A0F9
:1003F00009E00124F4E774B9A86806F067FB56A089
:1004000007F020FE59A0CDE900601823C82228215A
:100410001E2003F0AAFD0A2006F0FCF9D7E7E868E1
:1004200006F0EEFA54A007F00DFE58A0EBE71CB55D
:1004300007F070FC2F4902200C390023CDE90001A0
:10044000802255A1AFF2830006F022F8294903204B
:1004500008390023CDE90001802252A1AFF2391002
:1004600006F016F823490420091F0023CDE90001F6
:1004700080224FA1AFF2F31006F00AF81D481038A1
:10048000006806F030F8BDE81C4007F05DBC1CB504
:100490004FF4407003F09CFF03F08EFE4FF41650B3
:1004A00003F0F6FE00F042F900F06AF903F024FED2
:1004B00001F000F809494FF47840002308800D4905
:1004C00001201039CDE9000180223CA1AFF2A1004A
:1004D00005F0DEFF06F082FB00201CBD5E00002060
:1004E0005461736B322052756E3A30303000000028
:1004F0000080224210000020C8CECEF132D2D1BE00
:10050000ADD6B4D0D0A3BA2564B4CE0D0A00000095
:100510005461736B312072756E3A303030000000D8
:1005200000002142C8CECEF131D2D1D4CBD0D0A35D
:10053000BA2564B4CE0D0A00B9D2C6F0C8CECEF149
:1005400031B5C4D4CBD0D0210D0A000053746F70E4
:10055000207461736B203100BBD6B8B4C8CECEF125
:1005600031B5C4D4CBD0D0210D0A000052756E2015
:10057000207461736B203100B9D2C6F0C8CECEF1C1
:1005800032B5C4D4CBD0D0210D0A000052756E20F4
:10059000207461736B2032006B65795F7461736BDB
:1005A000000000007461736B315F7461736B000055
:1005B0007461736B325F7461736B0000737461728A
:1005C000745F7461736B00007047FEE7FEE7FEE73F
:1005D000FEE770470CB500224C480092019201687A
:1005E00041F4803101604FF4A063016801F40031EF
:1005F00001910099491C0091019911B90099994202
:10060000F3D10168890333D50121019140490A687A
:1006100042F010020A600A6822F003020A600A68C7
:1006200042F002020A6041684160416841604168ED
:1006300041F480614160416821F47C11416041686E
:1006400041F4E8114160016841F080710160016886
:100650008901FCD5416821F003014160416841F006
:10066000020141604168C1F381010229FAD10CBD48
:1006700001920CBD254810B5016841F001010160EF
:100680004168244A114041600168234A11400160D9
:10069000016821F480210160416821F4FE0141607C
:1006A0004FF41F018160FFF795FF1C494FF0006078
:1006B000086010BD154A10B55068194B10F00C01B8
:1006C000184803D0042901D0082901D0036012E0A2
:1006D0005168536801F470114FF0020413F4803F25
:1006E00004EB914102D053689B0301D50E4B00E00F
:1006F0000B4B5943016051680A4AC1F30311121DA3
:10070000515C0268CA40026010BD00000010024047
:10071000002002400000FFF8FFFFF6FE08ED00E0B9
:1007200000127A004800002000093D0038B5012180
:10073000242004F0E4F84FF48074ADF80040102059
:100740008DF8030003200C4D8DF802006946284601
:1007500003F0EDFE2146284603F053FF0420074C2A
:10076000ADF800006946204603F0E1FE0421204672
:1007700003F047FF38BD00000008014000140140AD
:1007800038B50121142004F0BAF80121384803F0EB
:1007900059FF4FF40040ADF80000364D48248DF865
:1007A00003406946284603F0C2FE2021ADF8001040
:1007B0008DF803406946304803F0B9FE0120ADF8DA
:1007C000000028208DF803006946284603F0AFFE9C
:1007D00038BD2DE9F041294C274F264D01264FF415
:1007E000004808B1267001E0207878B12021384611
:1007F00003F0F3FE88B14146284603F0EEFE60B1F7
:100800000121284603F0E9FE012806D020213846C0
:1008100003F0E3FE01281DD028E00A2003F002FDCA
:10082000002020702021384603F0D7FE58B1414601
:10083000284603F0D2FE48B10121284603F0CDFE40
:10084000012805D012E00120BDE8F0810220FBE77D
:100850000320F9E74146284603F0BFFE012805D1F1
:100860000121284603F0B9FE00B926700020EBE70D
:100870000002300000080140001001405C00002030
:100880004FF48072F7494A614A154A61F64B186085
:100890008020486108610A617047F2494FF4807214
:1008A0000A614A154A61F04B18608020486108616E
:1008B0000A617047401EC0B2FCD27047F0B5EA4BE7
:1008C0004FF088300C3B18601C1D2060E64D002066
:1008D0002860E44A98151061460056614027576128
:1008E0000220401EC0B2FCD2DF48001F0068176122
:1008F00080B216614FF03331196021604FF6FF71FD
:100900002960F0BD10B50C46FFF7BAFFD5484FF48B
:100910008071016142154261D3490C6080214161BF
:100920000161026110BD00B5FFF7AAFF5DF804EB9D
:10093000C4E7CE480089A3E7CA494FF480720A6130
:100940004A154A61C84B18608020486108610A61F5
:100950007047C0F34511C20AC00200EB41101044B9
:1009600080B270472DE9F04FC04B4FEA1129CCB24D
:100970009A881946060ABB4FDFF8ECA24989A2F50E
:10098000C858C5B24FF4807C4FF4007BB8F16308BF
:1009900037D0A2F5AA40103808467DD0FFF770FF87
:1009A000E046C7F810C0DC46C7F814B0CAF80060CB
:1009B00080267E613E61C7F810B0C7F81080C7F886
:1009C00014B0CAF800507E613E61C7F810B0A74865
:1009D0008089FFF755FFC7F81080C7F814C0CAF820
:1009E00000907E613E61C7F810C0C7F81080C7F85C
:1009F00014C0504604607E613E61C7F810C0BDE877
:100A0000F08F9A799846002A5FD00846FFF738FFA2
:100A1000C7F810C05846C7F814B05346CAF800606B
:100A2000802179613961C7F810B0C7F810C0C7F8E4
:100A300014B0CAF8005079613961C7F810B0C7F82E
:100A400010C0C7F814B0B8F80020521E15121D606F
:100A5000796139613861C7F810C07861D2B21A6023
:100A60007961396138614546B8F80C00FFF708FF35
:100A7000C7F810C05846C7F814B05346CAF80090DB
:100A8000802179613961C7F810B0C7F810C0C7F884
:100A900014B0CAF8004000E047E079613961C7F856
:100AA00010B0C7F810C0C7F814B06A88521E1412EC
:100AB0001C60796139613861C7F810C07861D2B2C1
:100AC0001A6079613961386199E7B8F80020101A25
:100AD000401E85B20846FFF7D3FEC7F810C058463F
:100AE000C7F814B000235246CAF80030802179615B
:100AF0003961C7F810B0C7F810C0C7F814B0CAF809
:100B0000003079613961C7F810B0C7F810C0C7F874
:100B100014B02B0ACAF80030796139613861C7F81E
:100B200010C07861EBB213609AE7FFF7A9FEE046C8
:100B3000C7F810C0DC46C7F814B0CAF800608026B9
:100B40007E613E61C7F810B048484089401C80B2C1
:100B5000FFF796FEC7F81080C7F814C0CAF8005017
:100B60007E613E61C7F810C040488089FFF788FE6B
:100B7000C7F81080C7F814C0CAF800907E613E61C3
:100B8000C7F810C039488089401C80B2FFF778FE52
:100B9000C7F81080C7F814C050462BE710B5334C87
:100BA0002288824202D962888A4201D8002010BD80
:100BB000FFF7D8FEA088A0F5AA4110391BD02E203F
:100BC000FFF75EFEFFF77AFEA188A1F5C852633AEF
:100BD000EDD0FFF773FE0446FFF770FEE1B24FF66B
:100BE000FF7202EA012124EA6212890A42EA4111F3
:100BF00041EAD02010BD4FF43850E1E71B4880880F
:100C0000A0F5AA41103901D0292039E64FF424502B
:100C1000FBE716488088A0F5AA41103901D02820AA
:100C20002EE64FF42050FBE72DE9F04F0F4C002546
:100C30002146A279898841F66316012A01D01AB1AA
:100C400021E0B14202D11EE0B1421CD108281AD2E3
:100C5000DFE800F004060E1012141618062012E049
:100C6000072010E0001001400C0C0140F4000020AF
:100C7000042008E0052006E0012004E0002002E056
:100C8000032000E00220082812D2DFE800F011045F
:100C900006080A0C0E1080250AE0402508E0C02551
:100CA00006E0202504E0602502E0A02500E0E02524
:100CB00045F21058414502D14FF4585000E036201B
:100CC000A1F51342413A03D0A1F5EE42893A01D190
:100CD00045F008052946FFF715FEA088B0420AD066
:100CE000A9062188628802D5914202D303E091428D
:100CF00001D9228061804FF0000C4FF0800A4FF440
:100D00008077FE4DDFF8F8B36E1540457BD16089E2
:100D1000FFF7B6FD2F616E61E146D846CBF800C003
:100D2000D446C5F814A0C5F810A02E616089401CF7
:100D300080B2FFF7A5FD2F616E61C8F80090C5F87D
:100D400014C0C5F810C02E616089801C80B2FFF706
:100D500097FD2F616E612088401E0112C8F80010B7
:100D6000C5F814C0C5F810C02E616089C01C80B2DF
:100D7000FFF786FD2F616E612078401EC1B2C8F872
:100D80000010C5F814C0C5F810C02E61A089FFF787
:100D900077FD2F616E61C8F80090C5F814C0C5F8E2
:100DA00010C02E61A089401C80B2FFF769FD2F6141
:100DB0006E61C8F80090C5F814C0C5F810C02E6167
:100DC000A089801C80B2FFF75BFD2F616E61608897
:100DD000401E0112C8F80010C5F814C0C5F810C0B4
:100DE0002E61A089C01C80B2FFF74AFD2F616E61A1
:100DF000A078401EC1B2C8F80010C5F814C0C5F8EC
:100E000010C052E0FFE7A0466089FFF739FD2F616F
:100E10006E616046E146DC46CBF800005446C5F8FA
:100E200014A0C5F810A02E612F616E61CBF8009060
:100E3000C5F814A0C5F810A02E612F616E61B8F836
:100E40000000401E0112CCF80010C5F814A02C615F
:100E50002E612F616E61C0B2CCF800006C612C6114
:100E60002E61B8F80C00FFF70BFD2F616E61CCF816
:100E700000906C612C612E612F616E61CCF8009046
:100E80006C612C612E612F616E61B8F80200401E0A
:100E90000112CCF800106C612C612E612F616E6123
:100EA000C0B2CCF800006C612C612E61A7E500B5E2
:100EB000FFF758FDFFF73DFD90484FF48071016149
:100EC000411541618F4A8E4B12881A60802242611F
:100ED0000261016100BD2DE9F74FDFF82CB2074632
:100EE00000F0FF0A4FEA102CBBF804205846834C50
:100EF00080260D0A4089A2F5AA4301F0FF09103BA4
:100F000042D0A2F5C8535946633B6CD0FFF7B8FCFA
:100F1000A015206147006761DFF8E481C8F800C0D0
:100F200066612661276120616761C8F800A066617B
:100F300026612761BBF80C00FFF7A2FCA015206119
:100F40006761C8F800506661266127614FF48070C0
:100F500020616761C8F800906661266127614FF4DF
:100F60008071616148006061654ABBF808301360B8
:100F7000666126612061216160610299116066618C
:100F800026612061BDE8FE8FFFF77AFC4FF4807088
:100F9000206147006761DFF86881C8F800C06661BA
:100FA00026612761BBF80A00401C80B2FFF768FC8D
:100FB000781020616761C8F800A06661266127612A
:100FC000BBF80C00FFF75CFC781020616761C8F883
:100FD0000050666126612761BBF80C00401C80B29E
:100FE000FFF74EFCB2E78A791AB90A88D21B521E63
:100FF00097B2FFF745FC4FF48078C4F810804FF4A7
:10100000007CC4F814C0DFF8F8A0380ACAF8000061
:1010100066612661C4F810C0C4F81080C4F814C01A
:10102000F9B2CAF8001066612661C4F810C0C4F8AD
:101030001080C4F814C0CAF8000066612661C4F8C4
:1010400010C0C4F81080C4F814C0CAF8001066615B
:101050002661C4F810C0BBF80C00FFF711FCC4F8FF
:101060001080C4F814C0CAF8005066612661C4F844
:1010700010C0C4F81080C4F814C0CAF800906661AB
:101080002661C4F810C0C4F81080C4F814C0CAF8AF
:10109000005066612661C4F810C0C4F81080C4F81E
:1010A00014C0CAF8009066612661C4F810C056E703
:1010B0002DE9F0418446BE20FFF7E2FB0F4C4FF4D0
:1010C0008077276165156561DFF834800521C8F8F0
:1010D0000010802666612661256127616561604692
:1010E00007F0A9FA4FF06632084B07F0B7FA07F09D
:1010F00075FAC8F800006661266109E00010014039
:101100000C0C01405E000020F400002066660440E4
:101110002561276165610121C8F8001066612661BB
:10112000256127616561FF21C8F8001066612661AD
:101130002561276165610020C8F8000066612661AD
:10114000256127616561C8F8000066612661256137
:10115000BDE8F0812DE9F04FFE4B2C271946987120
:101160002B2589884FF4305A4FF4285B4FF448748C
:1011700041F6631E2A264FF0F00845F210594FF44D
:10118000A07C4FF4F072C0B1A3F800C0A3F80280B5
:10119000494532D1A3F808A0A3F80AB028029881E3
:1011A0001C805A80A1F5A640103802D11A80A3F8FD
:1011B00002C0BDE8F04F002036E5A3F80080A3F898
:1011C00002C0494507D1A3F808A0A3F80AB04FF41C
:1011D0002C50988104E071451F8104D15D819E816E
:1011E0001A805C8001E05E819D81A1F5A6401038E7
:1011F000DFD1A3F800C05A80DBE71F815E81714513
:101200009D81CDD0CEE72DE9FF4FD24C9E46D24DE9
:10121000A388224601EB0E086E155289A3F5C85C1F
:1012200084B04FF480774FEA112B01F0FF0AA8F148
:101230000108BCF1630C59D194F806C0BCF1010F50
:1012400054D021461FFA88F80B880699591A081AB3
:101250001FFA80F91046FFF713FB2F616E61DFF86C
:10126000FCC24FEA1920CCF8000080246C612C618C
:101270002E612F616E6109F0FF00CCF800006C61F7
:101280002C612E612F616E61069909EB0100401EF1
:101290000112CCF800106C612C612E612F616E611F
:1012A000C0B2CCF800006C612C612E61A948808925
:1012B000FFF7E6FA2F616E61CCF800B06C612C612B
:1012C0002E612F616E61CCF800A06C612C612E61E3
:1012D0002F616E614FEA1820CCF800006C612C6120
:1012E0002E612F616E6108F0FF005CE0DDF8188070
:1012F000040A00F0FF094044401E80B24FEA102863
:10130000C0B2CDE9020801EB0E00401E80B2010A16
:10131000C0B2A3F5A04CCDE90001DFF83882BCF5DE
:10132000A26C104646D0FFF7ABFA2F616E61DFF872
:101330002CC2CCF8004080246C612C612E612F619E
:101340006E61CCF800906C612C612E612F616E6132
:101350000398CCF800006C612C612E612F616E61E6
:101360000298CCF800006C612C612E61B8F80C007A
:10137000FFF786FA2F616E61CCF800B06C612C61CA
:101380002E612F616E61CCF800A06C612C612E6122
:101390002F616E610198CCF800006C612C612E61A8
:1013A0002F616E610098CCF800006C612C612E6199
:1013B00008B07BE5FFF764FA2F616E61DFF89CC12E
:1013C000CCF8004080246C612C612E61B8F80A00D2
:1013D000401C80B2FFF754FA2F616E61CCF8009088
:1013E0006C612C612E61B8F80A00801C80B2FFF796
:1013F00047FA2F616E610398CCF800006C612C6194
:101400002E61B8F80A00C01C80B2FFF739FA2F61CC
:101410006E610298CCF800006C612C612E61B8F806
:101420000C00FFF72DFA2F616E61CCF800B06C61F3
:101430002C612E61B8F80C00401C80B2FFF720FA36
:101440002F616E61CCF800A06C612C612E61B8F840
:101450000C00801C80B2FFF713FA2F616E610198B7
:10146000CCF800006C612C612E61B8F80C00C01C37
:1014700080B2FFF705FA93E7F0B536490646002437
:1014800008884D88214645432046FFF76BFAFFF751
:1014900050FA31494FF480774B15304A802006E0EE
:1014A0000F614B611660486108610B61641CAC42BE
:1014B000F6D3F0BD2DE9F84F0121192003F01FFAF2
:1014C0000121274803F0BEF84FF4F860ADF80000A2
:1014D00010208DF8030003208DF8020069461E4895
:1014E00003F025F84FF4F8611B4803F08AF81B4C11
:1014F0004FF6FF7B0C3CADF800B06946204603F088
:1015000016F85946204603F07CF8322002F08AFE95
:1015100001210020FFF7F6F9322002F083FED320EC
:10152000FFF7AEF9FFF7CAF90A4EB080FFF7C6F928
:10153000B080FFF7C3F9594601EA0020B080FFF7F9
:10154000BDF9B18849F241380843B08047F2897447
:1015500008E00000F4000020001001400C0C0140E5
:101560000002300045F2103545F2105941F6631A79
:10157000404574D00420FFF783F9FFF79FF9B0804E
:10158000FFF79CF9B080FFF799F90BEA00205F465E
:10159000B080FFF793F9B1880843A0F50541B0800A
:1015A000523958D0A0425AD0D420FFF769F9FFF73A
:1015B00085F9B080FFF782F9B080FFF77FF907EA7D
:1015C0000020B080FFF77AF9B1880843B080A842C4
:1015D00045D055214FF47040FFF794F9AA214FF2FE
:1015E0000100FFF78FF952214FF20200FFF78AF94D
:1015F00008214FF20300FFF785F901214FF20400A3
:10160000FFF780F94FF44540FFF73AF9FFF756F935
:1016100007EA0020B0804CF20150FFF731F9FFF7E4
:101620004DF9B1880843B080484518D0A120FFF794
:1016300027F9FFF743F9B080FFF740F907EA0020E8
:10164000B080FFF73BF9B1880843A0F5AE41B08008
:10165000613902D003E0B48001E0A6F804A0B188AB
:10166000F7A006F0EFFCB08840457CD1CF20FFF713
:1016700007F90020FFF711F9C120FFF70EF930201C
:10168000FFF70BF9ED20FFF7FBF86420FFF705F9F2
:101690000320FFF702F91220FFF7FFF88120FFF780
:1016A000FCF8E820FFF7ECF88520FFF7F6F81020AB
:1016B000FFF7F3F87A20FFF7F0F8CB20FFF7E0F818
:1016C0003920FFF7EAF82C20FFF7E7F80020FFF7B2
:1016D000E4F83420FFF7E1F80220FFF7DEF8F72006
:1016E000FFF7CEF82020FFF7D8F8EA20FFF7C8F878
:1016F0000020FFF7D2F80020FFF7CFF8C020FFF757
:10170000BFF81B20FFF7C9F8C120FFF7B9F8012087
:10171000FFF7C3F8C520FFF7B3F83020FFF7BDF897
:101720003020FFF7BAF8C720FFF7AAF8B720FFF775
:10173000B4F83620FFF7A4F84820FFF7AEF83A20B7
:10174000FFF79EF85520FFF7A8F8B120FFF798F8AB
:101750000020FFF7A2F81A20FFF79FF8B620FFF746
:101760008FF80A2000E095E0FFF797F8A220FFF736
:1017700094F8F220FFF784F80020FFF78EF8262077
:10178000FFF77EF80120FFF788F8E020FFF778F8F0
:101790000F20FFF782F82A20FFF77FF82820FFF7B5
:1017A0007CF80820FFF779F80E20FFF776F808207C
:1017B000FFF773F85420FFF770F8A920FFF76DF8D2
:1017C0004320FFF76AF80A20FFF767F80F20FFF7BA
:1017D00064F80020FFF761F80020FFF75EF80020B2
:1017E000FFF75BF80020FFF758F8E120FFF748F813
:1017F0000020FFF752F81520FFF74FF81720FFF7EA
:101800004CF80720FFF749F81120FFF746F80620AB
:10181000FFF743F82B20FFF740F85620FFF73DF87D
:101820003C20FFF73AF80520FFF737F81020FFF7C4
:1018300034F80F20FFF731F83F20FFF72EF83F2054
:10184000FFF72BF80F20FFF728F82B20FFF718F8E9
:101850000020FFF722F80020FFF71FF80120FFF714
:101860001CF83F20FFF719F82A20FFF709F800209D
:10187000FFF713F80020FFF710F80020FFF70DF82E
:10188000EF20FFF70AF81120FEF7FAFF782002F0A8
:10189000C9FCD2E0A0427CD11120FEF7F1FF7820F4
:1018A00002F0C0FC3620FEF7EBFF0020FEF7F5FF4C
:1018B0003A20FEF7E5FF0520FEF7EFFFB220FEF726
:1018C000DFFF0C20FEF7E9FF0C20FEF7E6FF00200B
:1018D000FEF7E3FF3320FEF7E0FF3320FEF7DDFFE6
:1018E000B720FEF7CDFF3520FEF7D7FFBB20FEF770
:1018F000C7FF3220FEF7D1FFC020FEF7C1FF0C204A
:10190000FEF7CBFFC220FEF7BBFF0120FEF7C5FFAD
:10191000C320FEF7B5FF1020FEF7BFFFC420FEF77F
:10192000AFFF2020FEF7B9FFC620FEF7A9FF0F206A
:10193000FEF7B3FFD020FEF7A3FFA420FEF7ADFF14
:10194000A120FEF7AAFFE020FEF79AFFD020FEF7C5
:10195000A4FF0020FEF7A1FF0220FEF79EFF072054
:10196000FEF79BFF0A20FEF798FF2820FEF795FF61
:101970003220FEF792FF4420FEF78FFF4220FEF751
:101980008CFF0620FEF789FF0E20FEF786FF12204F
:1019900000E05DE0FEF781FF1420FEF77EFF1720D8
:1019A000FEF77BFFE120FEF76BFFD020FEF775FF0F
:1019B0000020FEF772FF0220FEF76FFF0720FEF700
:1019C0006CFF0A20FEF769FF2820FEF766FF312032
:1019D000FEF763FF5420FEF760FF4720FEF75DFF30
:1019E0000E20FEF75AFF1C20FEF757FF1720FEF7C8
:1019F00054FF1B20FEF751FF1E20FEF74EFF2A204A
:101A0000FEF73EFF0020FEF748FF0020FEF745FFEF
:101A10000020FEF742FFEF20FEF73FFF2B20FEF7EE
:101A20002FFF0020FEF739FF0020FEF736FF0120D0
:101A3000FEF733FF3F20FEF730FF292001F003BF00
:101A4000204C43442049443A25780D0A0000000008
:101A5000A8427CD1ED20FEF713FF0120FEF71DFF09
:101A6000FE20FEF71AFFEE20FEF70AFFDE20FEF74B
:101A700014FF2120FEF711FFF120FEF701FF0120E6
:101A8000FEF70BFFDF20FEF7FBFE1020FEF705FF41
:101A9000C420FEF7F5FE8F20FEF7FFFEC620FEF7FE
:101AA000EFFE0020FEF7F9FEE220FEF7F6FEE22050
:101AB000FEF7F3FEE220FEF7F0FEBF20FEF7E0FEA9
:101AC000AA20FEF7EAFEB020FEF7DAFE0D20FEF7B0
:101AD000E4FE0020FEF7E1FE0D20FEF7DEFE002012
:101AE000FEF7DBFE1120FEF7D8FE0020FEF7D5FE44
:101AF0001920FEF7D2FE0020FEF7CFFE2120FEF7D0
:101B0000CCFE0020FEF7C9FE2D20FEF7C6FE002009
:101B1000FEF7C3FE3D20FEF7C0FE0020FEF7BDFE2F
:101B20005D20FEF7BAFE0020FEF7B7FE5D20FEF74F
:101B3000B4FE0020FEF7B1FEB120FEF7A1FE80202A
:101B4000FEF7ABFE0020FEF7A8FE8B2000E0FCE3D2
:101B5000FEF7A3FE0020FEF7A0FE9620FEF79DFEF6
:101B60000020FEF79AFEB220FEF78AFE0020FEF764
:101B700094FE0020FEF791FE0220FEF78EFE00206C
:101B8000FEF78BFE0320FEF788FE0020FEF785FEA1
:101B9000B320FEF775FE0020FEF77FFE0020FEF763
:101BA0007CFE0020FEF779FE0020FEF776FE002086
:101BB000FEF773FE0020FEF770FE0020FEF76DFEBC
:101BC0000020FEF76AFE0020FEF767FE0020FEF709
:101BD00064FE0020FEF761FE0020FEF75EFE00209E
:101BE000FEF75BFE0020FEF758FE0020FEF755FED4
:101BF0000020FEF752FE0020FEF74FFE0020FEF709
:101C00004CFE0020FEF749FE0020FEF746FE0020B5
:101C1000FEF743FE0020FEF740FE0020FEF73DFEEB
:101C20000020FEF73AFEB420FEF72AFE8B20FEF7D6
:101C300034FE0020FEF731FE9620FEF72EFE002037
:101C4000FEF72BFEA120FEF728FE0020FEF725FE62
:101C5000B520FEF715FE0220FEF71FFE0020FEF75E
:101C60001CFE0320FEF719FE0020FEF716FE0420DE
:101C7000FEF713FE0020FEF710FEB620FEF700FE72
:101C80000020FEF70AFE0020FEF707FEB720FEF751
:101C9000F7FD0020FEF701FE0020FEF7FEFD3F20CD
:101CA000FEF7FBFD0020FEF7F8FD5E20FEF7F5FDD8
:101CB0000020FEF7F2FD6420FEF7EFFD0020FEF7A6
:101CC000ECFD8C20FEF7E9FD0020FEF7E6FDAC20E0
:101CD000FEF7E3FD0020FEF7E0FDDC20FEF7DDFD72
:101CE0000020FEF7DAFD7020FEF7D7FD0020FEF79A
:101CF000D4FD9020FEF7D1FD0020FEF7CEFDEB20B5
:101D0000FEF7CBFD0020FEF7C8FDDC20FEF7C5FD89
:101D10000020FEF7C2FDB820FEF7B2FD0020FEF75E
:101D2000BCFD0020FEF7B9FD0020FEF7B6FD002047
:101D3000FEF7B3FD0020FEF7B0FD0020FEF7ADFD7D
:101D40000020FEF7AAFD0020FEF7A7FDBA20FEF74F
:101D500097FD2420FEF7A1FD0020FEF79EFD002048
:101D6000FEF79BFD0020FEF798FDC120FEF788FDE1
:101D70002020FEF792FD0020FEF78FFD5420FEF795
:101D80008CFD0020FEF789FDFF20FEF786FD002078
:101D9000FEF783FDC220FEF773FD0A20FEF77DFDEE
:101DA0000020FEF77AFD0420FEF777FD0020FEF705
:101DB00074FDC320FEF764FD3C20FEF76EFD00209D
:101DC000FEF76BFD3A20FEF768FD0020FEF765FD8B
:101DD0003920FEF762FD0020FEF75FFD3720FEF799
:101DE0005CFD0020FEF759FD3C20FEF756FD00206B
:101DF000FEF753FD3620FEF750FD0020FEF74DFDA7
:101E00003220FEF74AFD0020FEF747FD2F20FEF7A7
:101E100044FD0020FEF741FD2C20FEF73EFD002092
:101E2000FEF73BFD2920FEF738FD0020FEF735FDCB
:101E30002620FEF732FD0020FEF72FFD2420FEF7BE
:101E40002CFD0020FEF729FD2420FEF726FD0020B2
:101E5000FEF723FD2320FEF720FD0020FEF71DFDE9
:101E60003C20FEF71AFD0020FEF717FD3620FEF796
:101E700014FD0020FEF711FD3220FEF70EFD0020BC
:101E8000FEF70BFD2F20FEF708FD0020FEF705FDF5
:101E90002C20FEF702FD0020FEF7FFFC2920FEF7B4
:101EA000FCFC0020FEF7F9FC2620FEF7F6FC0020E3
:101EB000FEF7F3FC2420FEF7F0FC0020FEF7EDFC1B
:101EC0002420FEF7EAFC0020FEF7E7FC2320FEF7C3
:101ED000E4FC0020FEF7E1FCC420FEF7D1FC622008
:101EE000FEF7DBFC0020FEF7D8FC0520FEF7D5FC52
:101EF0000020FEF7D2FC8420FEF7CFFC0020FEF786
:101F0000CCFCF020FEF7C9FC0020FEF7C6FC182030
:101F1000FEF7C3FC0020FEF7C0FCA420FEF7BDFCCA
:101F20000020FEF7BAFC1820FEF7B7FC0020FEF7F1
:101F3000B4FC5020FEF7B1FC0020FEF7AEFC0C20F4
:101F4000FEF7ABFC0020FEF7A8FC1720FEF7A5FC6F
:101F50000020FEF7A2FC9520FEF79FFC0020FEF774
:101F60009CFCF320FEF799FC0020FEF796FCE6208F
:101F7000FEF793FC0020FEF790FCC520FEF780FCE6
:101F80003220FEF78AFC0020FEF787FC4420FEF793
:101F900084FC0020FEF781FC6520FEF77EFC00201B
:101FA000FEF77BFC7620FEF778FC0020FEF775FC40
:101FB0008820FEF772FC0020FEF76FFCC620FEF7BB
:101FC0005FFC2020FEF769FC0020FEF766FC17206E
:101FD000FEF763FC0020FEF760FC0120FEF75DFCCD
:101FE0000020FEF75AFCC720FEF74AFC0020FEF74F
:101FF00054FC0020FEF751FC0020FEF74EFC0020B0
:10200000FEF74BFCC820FEF73BFC0020FEF745FC2A
:102010000020FEF742FC0020FEF73FFC0020FEF708
:102020003CFCC920FEF72CFC0020FEF736FC00200B
:10203000FEF733FC0020FEF730FC0020FEF72DFCFD
:102040000020FEF72AFC0020FEF727FC0020FEF708
:1020500024FC0020FEF721FC0020FEF71EFC0020DF
:10206000FEF71BFC0020FEF718FC0020FEF715FC15
:102070000020FEF712FC0020FEF70FFC0020FEF708
:102080000CFC0020FEF709FCE020FEF7F9FB16200F
:10209000FEF703FC0020FEF700FC1C20FEF7FDFB12
:1020A0000020FEF7FAFB2120FEF7F7FB0020FEF7E9
:1020B000F4FB3620FEF7F1FB0020FEF7EEFB462096
:1020C000FEF7EBFB0020FEF7E8FB5220FEF7E5FBF6
:1020D0000020FEF7E2FB6420FEF7DFFB0020FEF7A6
:1020E000DCFB7A20FEF7D9FB0020FEF7D6FB8B2025
:1020F000FEF7D3FB0020FEF7D0FB9920FEF7CDFBC7
:102100000020FEF7CAFBA820FEF7C7FB0020FEF761
:10211000C4FBB920FEF7C1FB0020FEF7BEFBC420C4
:10212000FEF7BBFB0020FEF7B8FBCA20FEF7B5FBAD
:102130000020FEF7B2FBD220FEF7AFFB0020FEF737
:10214000ACFBD920FEF7A9FB0020FEF7A6FBE020A0
:10215000FEF7A3FB0020FEF7A0FBF320FEF79DFB9C
:102160000020FEF79AFBE120FEF78AFB1620FEF71F
:1021700094FB0020FEF791FB1C20FEF78EFB002055
:10218000FEF78BFB2220FEF788FB0020FEF785FB85
:102190003620FEF782FB0020FEF77FFB4520FEF78E
:1021A0007CFB0020FEF779FB5220FEF776FB002037
:1021B000FEF773FB6420FEF770FB0020FEF76DFB5B
:1021C0007A20FEF76AFB0020FEF767FB8B20FEF704
:1021D00064FB0020FEF761FB9920FEF75EFB002008
:1021E000FEF75BFBA820FEF758FB0020FEF755FB2F
:1021F000B920FEF752FB0020FEF74FFBC420FEF78C
:102200004CFB0020FEF749FBCA20FEF746FB0020EE
:10221000FEF743FBD220FEF740FB0020FEF73DFB1C
:10222000D820FEF73AFB0020FEF737FBE020FEF750
:1022300034FB0020FEF731FBF320FEF72EFB0020DD
:10224000FEF72BFBE220FEF71BFB0520FEF725FB2C
:102250000020FEF722FB0B20FEF71FFB0020FEF7FD
:102260001CFB1B20FEF719FB0020FEF716FB342099
:10227000FEF713FB0020FEF710FB4420FEF70DFBDA
:102280000020FEF70AFB4F20FEF707FB0020FEF7B9
:1022900004FB6120FEF701FB0020FEF7FEFA792027
:1022A000FEF7FBFA0020FEF7F8FA8820FEF7F5FAB1
:1022B0000020FEF7F2FA9720FEF7EFFA0020FEF773
:1022C000ECFAA620FEF7E9FA0020FEF7E6FAB720BE
:1022D000FEF7E3FA0020FEF7E0FAC220FEF7DDFA8F
:1022E0000020FEF7DAFAC720FEF7D7FA0020FEF743
:1022F000D4FAD120FEF7D1FA0020FEF7CEFAD6208C
:10230000FEF7CBFA0020FEF7C8FADD20FEF7C5FA8B
:102310000020FEF7C2FAF320FEF7BFFA0020FEF716
:10232000BCFAE320FEF7ACFA0520FEF7B6FA00206F
:10233000FEF7B3FA0A20FEF7B0FA0020FEF7ADFA76
:102340001C20FEF7AAFA002000E0FDE2FEF7A5FA45
:102350003320FEF7A2FA0020FEF79FFA4420FEF792
:102360009CFA0020FEF799FA5020FEF796FA00201A
:10237000FEF793FA6220FEF790FA0020FEF78DFA3E
:102380007820FEF78AFA0020FEF787FA8820FEF709
:1023900084FA0020FEF781FA9720FEF77EFA0020EB
:1023A000FEF77BFAA620FEF778FA0020FEF775FA12
:1023B000B720FEF772FA0020FEF76FFAC220FEF790
:1023C0006CFA0020FEF769FAC720FEF766FA0020D3
:1023D000FEF763FAD120FEF760FA0020FEF75DFAFF
:1023E000D520FEF75AFA0020FEF757FADD20FEF757
:1023F00054FA0020FEF751FAF320FEF74EFA0020BF
:10240000FEF74BFAE420FEF73BFA0120FEF745FA0F
:102410000020FEF742FA0120FEF73FFA0020FEF707
:102420003CFA0220FEF739FA0020FEF736FA2A209D
:10243000FEF733FA0020FEF730FA3C20FEF72DFAC3
:102440000020FEF72AFA4B20FEF727FA0020FEF7BD
:1024500024FA5D20FEF721FA0020FEF71EFA742010
:10246000FEF71BFA0020FEF718FA8420FEF715FA93
:102470000020FEF712FA9320FEF70FFA0020FEF775
:102480000CFAA220FEF709FA0020FEF706FAB320A4
:10249000FEF703FA0020FEF700FABE20FEF7FDF972
:1024A0000020FEF7FAF9C420FEF7F7F90020FEF746
:1024B000F4F9CD20FEF7F1F90020FEF7EEF9D32074
:1024C000FEF7EBF90020FEF7E8F9DD20FEF7E5F96D
:1024D0000020FEF7E2F9F320FEF7DFF90020FEF717
:1024E000DCF9E520FEF7CCF90020FEF7D6F9002054
:1024F000FEF7D3F90020FEF7D0F90020FEF7CDF962
:102500000220FEF7CAF90020FEF7C7F92920FEF7DE
:10251000C4F90020FEF7C1F93C20FEF7BEF9002007
:10252000FEF7BBF94B20FEF7B8F90020FEF7B5F92E
:102530005D20FEF7B2F90020FEF7AFF97420FEF738
:10254000ACF90020FEF7A9F98420FEF7A6F90020D7
:10255000FEF7A3F99320FEF7A0F90020FEF79DF9FE
:10256000A220FEF79AF90020FEF797F9B320FEF7B4
:1025700094F90020FEF791F9BE20FEF78EF90020B5
:10258000FEF78BF9C420FEF788F90020FEF785F9E5
:10259000CD20FEF782F90020FEF77FF9D320FEF769
:1025A0007CF90020FEF779F9DC20FEF776F90020AF
:1025B000FEF773F9F320FEF770F90020FEF76DF9CE
:1025C000E620FEF75DF91120FEF767F90020FEF71F
:1025D00064F93420FEF761F90020FEF75EF9562019
:1025E000FEF75BF90020FEF758F97620FEF755F963
:1025F0000020FEF752F97720FEF74FF90020FEF792
:102600004CF96620FEF749F90020FEF746F98820CC
:10261000FEF743F90020FEF740F99920FEF73DF957
:102620000020FEF73AF9BB20FEF737F90020FEF74D
:1026300034F99920FEF731F90020FEF72EF96620D3
:10264000FEF72BF90020FEF728F95520FEF725F9B3
:102650000020FEF722F95520FEF71FF90020FEF7B3
:102660001CF94520FEF719F90020FEF716F9432062
:10267000FEF713F90020FEF710F94420FEF70DF9DC
:102680000020FEF70AF9E720FEF7FAF83220FEF7FD
:1026900004F90020FEF701F95520FEF7FEF80020AE
:1026A000FEF7FBF87620FEF7F8F80020FEF7F5F8C5
:1026B0006620FEF7F2F80020FEF7EFF86720FEF73D
:1026C000ECF80020FEF7E9F86720FEF7E6F80020B6
:1026D000FEF7E3F88720FEF7E0F80020FEF7DDF8CC
:1026E0009920FEF7DAF80020FEF7D7F8BB20FEF7B6
:1026F000D4F80020FEF7D1F89920FEF7CEF800209C
:10270000FEF7CBF87720FEF7C8F80020FEF7C5F8F3
:102710004420FEF7C2F80020FEF7BFF85620FEF76F
:10272000BCF80020FEF7B9F82320FEF7B6F8002029
:10273000FEF7B3F83320FEF7B0F80020FEF7ADF84F
:102740004520FEF7AAF80020FEF7A7F8E820FEF7DC
:1027500097F80020FEF7A1F80020FEF79EF89920D8
:10276000FEF79BF80020FEF798F88720FEF795F813
:102770000020FEF792F88820FEF78FF80020FEF781
:102780008CF87720FEF789F80020FEF786F866209F
:10279000FEF783F80020FEF780F88820FEF77DF82A
:1027A0000020FEF77AF8AA20FEF777F80020FEF75F
:1027B00074F8BB20FEF771F80020FEF76EF8992040
:1027C000FEF76BF80020FEF768F86620FEF765F864
:1027D0000020FEF762F85520FEF75FF80020FEF7B4
:1027E0005CF85520FEF759F80020FEF756F8442013
:1027F000FEF753F80020FEF750F84420FEF74DF89E
:102800000020FEF74AF85520FEF747F80020FEF7B3
:1028100044F8E920FEF734F8AA20FEF73EF800203D
:10282000FEF73BF80020FEF738F80020FEF735F8F9
:102830000020FEF725F8AA20FEF72FF8CF20FEF79C
:102840001FF80020FEF729F80020FEF726F80020E8
:10285000FEF723F80020FEF720F80020FEF71DF811
:102860000020FEF71AF80020FEF717F80020FEF708
:1028700014F80020FEF711F80020FEF70EF80020F3
:10288000FEF70BF80020FEF708F80020FEF705F829
:102890000020FEF702F80020FDF7FFFF0020FDF703
:1028A000FCFF0020FDF7F9FFF020FDF7E9FF002015
:1028B000FDF7F3FF5020FDF7F0FF0020FDF7EDFFDF
:1028C0000020FDF7EAFF0020FDF7E7FFF320FDF70A
:1028D000D7FF0020FDF7E1FFF920FDF7D1FF06202B
:1028E000FDF7DBFF1020FDF7D8FF2920FDF7D5FF0E
:1028F0000020FDF7D2FF3A20FDF7C2FF5520FDF77B
:10290000CCFF1120FDF7BCFF642001F08BFC2920D7
:10291000FDF7B6FF3520FDF7B3FF0020FDF7BDFF43
:102920005120FDF7ADFFFF20FDF7B7FF5320FDF766
:10293000A7FF2C20FDF7B1FF5520FDF7A1FF822056
:10294000FDF7ABFF2C20FCE348457DD14FF47044EC
:1029500055212046FDF7D6FF651CAA212846FDF724
:10296000D1FFA61C52213046FDF7CCFFE71C082101
:102970003846FDF7C7FF4FF2040C01216046FDF712
:10298000C1FF0D214FF43040FDF7BCFF0D214BF28C
:102990000100FDF7B7FF0D214BF20200FDF7B2FF7A
:1029A0004FF4364834214046FDF7ACFF34214BF25A
:1029B0000160FDF7A7FF34214BF20260FDF7A2FF93
:1029C0004FF431490D214846FDF79CFF4BF2011AA7
:1029D0000D215046FDF796FF0D214BF20210FDF739
:1029E00091FF34214FF43740FDF78CFF34214BF237
:1029F0000170FDF787FF34214BF20270FDF782FF73
:102A000000214FF43240FDF77DFF00214BF2012001
:102A1000FDF778FF00214BF20220FDF773FF242120
:102A20004FF43840FDF76EFF24214BF60100FDF70F
:102A300069FF24214BF60200FDF764FF01214FF4EA
:102A40003F40FDF75FFF00E0FEE30F214FF433400E
:102A5000FDF758FF0F214BF20130FDF753FF0F2117
:102A60004BF20230FDF74EFF34214FF43940FDF7B1
:102A700049FF34214BF60110FDF744FF34214BF69A
:102A80000210FDF73FFF08214FF43540FDF73AFFF4
:102A900008214BF20150FDF735FF08214BF202509F
:102AA000FDF730FF03214FF44240FDF72BFF2421B7
:102AB0004FF43A40FDF726FF24214BF60120FDF7A5
:102AC00021FF24214BF60220FDF71CFF00214FF4CB
:102AD0003C40FDF717FF78214BF60140FDF712FF50
:102AE00000214BF60240FDF70DFF00214FF43D4061
:102AF000FDF708FF78214BF60150FDF703FF002199
:102B00004BF60250FDF7FEFE00214FF43E40FDF76C
:102B1000F9FE64214BF60160FDF7F4FE00214FF44D
:102B20005140FDF7EFFE33214DF20110FDF7EAFEB3
:102B300000214DF20210FDF7E5FE34214DF20310A5
:102B4000FDF7E0FE00214DF20410FDF7DBFE3A2117
:102B50004DF20510FDF7D6FE00214DF20610FDF7EF
:102B6000D1FE4A214DF20710FDF7CCFE00214DF2B7
:102B70000810FDF7C7FE5C214DF20910FDF7C2FEFB
:102B800000214DF20A10FDF7BDFE81214DF20B1020
:102B9000FDF7B8FE00214DF20C10FDF7B3FEA621A3
:102BA0004DF20D10FDF7AEFE00214DF20E10FDF7B7
:102BB000A9FEE5214DF20F10FDF7A4FE01214DF213
:102BC0001010FDF79FFE13214DF21110FDF79AFE34
:102BD00001214DF21210FDF795FE54214DF2131014
:102BE000FDF790FE01214DF21410FDF78BFE8221BE
:102BF0004DF21510FDF786FE01214DF21610FDF77E
:102C000081FECA214DF21710FDF77CFE02214DF224
:102C10001810FDF777FE00214DF21910FDF772FE36
:102C200002214DF21A10FDF76DFE01214DF21B102D
:102C3000FDF768FE02214DF21C10FDF763FE342102
:102C40004DF21D10FDF75EFE02214DF21E10FDF744
:102C500059FE67214DF21F10FDF754FE02214DF27F
:102C60002010FDF74FFE84214DF22110FDF74AFEA2
:102C700002214DF22210FDF745FEA4214DF2231052
:102C8000FDF740FE02214DF22410FDF73BFEB72177
:102C90004DF22510FDF736FE02214DF22610FDF70C
:102CA00031FECF214DF22710FDF72CFE02214DF20F
:102CB0002810FDF727FEDE214DF22910FDF722FE38
:102CC00002214DF22A10FDF71DFEF2214DF22B10CC
:102CD000FDF718FE02214DF22C10FDF713FEFE2128
:102CE0004DF22D10FDF70EFE03214DF22E10FDF7D3
:102CF00009FE10214DF22F10FDF704FE03214DF2C5
:102D00003010FDF7FFFD33214DF23110FDF7FAFDD4
:102D100003214DF23210FDF7F5FD6D214DF2331018
:102D2000FDF7F0FD00214FF45240FDF7EBFD33219C
:102D30004DF20120FDF7E6FD00214DF20220FDF7E6
:102D4000E1FD34214DF20320FDF7DCFD00214DF2C1
:102D50000420FDF7D7FD3A214DF20520FDF7D2FD05
:102D600000214DF20620FDF7CDFD4A214DF207204E
:102D7000FDF7C8FD00214DF20820FDF7C3FD5C21E1
:102D80004DF20920FDF7BEFD00214DF20A20FDF7AE
:102D9000B9FD81214DF20B20FDF7B4FD00214DF26C
:102DA0000C20FDF7AFFDA6214DF20D20FDF7AAFD89
:102DB00000214DF20E20FDF7A5FDE5214DF20F207B
:102DC000FDF7A0FD01214DF21020FDF79BFD132121
:102DD0004DF21120FDF796FD01214DF21220FDF775
:102DE00091FD54214DF21320FDF78CFD01214DF290
:102DF0001420FDF787FD82214DF21520FDF782FD9D
:102E000001214DF21620FDF77DFDCA214DF217205C
:102E1000FDF778FD02214DF21820FDF773FD00212A
:102E20004DF21920FDF76EFD02214DF21A20FDF73B
:102E300069FD01214DF21B20FDF764FD02214DF2D9
:102E40001C20FDF75FFD34214DF21D20FDF75AFDDA
:102E500002214DF21E20FDF755FD67214DF21F2086
:102E6000FDF750FD02214DF22020FDF74BFD84219E
:102E70004DF22120FDF746FD02214DF22220FDF703
:102E800041FDA4214DF22320FDF73CFD02214DF22E
:102E90002420FDF737FDB7214DF22520FDF732FD47
:102EA00002214DF22620FDF72DFDCF214DF22720E6
:102EB000FDF728FD02214DF22820FDF723FDDE213C
:102EC0004DF22920FDF71EFD02214DF22A20FDF7CB
:102ED00019FDF2214DF22B20FDF714FD02214DF2D8
:102EE0002C20FDF70FFDFE214DF22D20FDF70AFDF0
:102EF00003214DF22E20FDF705FD10214DF22F206C
:102F0000FDF700FD03214DF23020FDF7FBFC3321DE
:102F10004DF23120FDF7F6FC03214DF23220FDF792
:102F2000F1FC6D214DF23320FDF7ECFC00214FF454
:102F30005340FDF7E7FC33214DF20130FDF7E2FC91
:102F400000214DF20230FDF7DDFC34214DF203305B
:102F5000FDF7D8FC00214DF20430FDF7D3FC3A21F7
:102F60004DF20530FDF7CEFC00214DF20630FDF7A5
:102F7000C9FC4A214DF20730FDF7C4FC00214DF297
:102F80000830FDF7BFFC5C214DF20930FDF7BAFCBB
:102F900000214DF20A30FDF7B5FC81214DF20B30D6
:102FA000FDF7B0FC00214DF20C30FDF7ABFCA62183
:102FB0004DF20D30FDF7A6FC00214DF20E30FDF76D
:102FC000A1FCE5214DF20F30FDF79CFC01214DF2F3
:102FD0001030FDF797FC13214DF21130FDF792FCF4
:102FE00001214DF21230FDF78DFC54214DF21330CA
:102FF000FDF788FC01214DF21430FDF783FC82219E
:103000004DF21530FDF77EFC01214DF21630FDF733
:1030100079FCCA214DF21730FDF774FC02214DF204
:103020001830FDF76FFC00214DF21930FDF76AFCF6
:1030300002214DF21A30FDF765FC01214DF21B30E3
:10304000FDF760FC02214DF21C30FDF75BFC3421E2
:103050004DF21D30FDF756FC02214DF21E30FDF7FA
:1030600051FC67214DF21F30FDF74CFC02214DF25F
:103070002030FDF747FC84214DF22130FDF742FC62
:1030800002214DF22230FDF73DFCA4214DF2233008
:10309000FDF738FC02214DF22430FDF733FCB72157
:1030A0004DF22530FDF72EFC02214DF22630FDF7C2
:1030B00029FCCF214DF22730FDF724FC02214DF2EF
:1030C0002830FDF71FFCDE214DF22930FDF71AFCF8
:1030D00002214DF22A30FDF715FCF2214DF22B3082
:1030E000FDF710FC02214DF22C30FDF70BFCFE2108
:1030F0004DF22D30FDF706FC03214DF22E30FDF789
:1031000001FC10214DF22F30FDF7FCFB03214DF2A5
:103110003030FDF7F7FB33214DF23130FDF7F2FB94
:1031200003214DF23230FDF7EDFB6D214DF23330CE
:10313000FDF7E8FB00214FF45440FDF7E3FB33219A
:1031400000E080E34DF20140FDF7DCFB00214DF291
:103150000240FDF7D7FB34214DF20340FDF7D2FBCF
:1031600000214DF20440FDF7CDFB3A214DF2054020
:10317000FDF7C8FB00214DF20640FDF7C3FB4A21D5
:103180004DF20740FDF7BEFB00214DF20840FDF770
:10319000B9FB5C214DF20940FDF7B4FB00214DF273
:1031A0000A40FDF7AFFB81214DF20B40FDF7AAFB72
:1031B00000214DF20C40FDF7A5FBA6214DF20D407C
:1031C000FDF7A0FB00214DF20E40FDF79BFBE52132
:1031D0004DF20F40FDF796FB01214DF21040FDF737
:1031E00091FB13214DF21140FDF78CFB01214DF2B3
:1031F0001240FDF787FB54214DF21340FDF782FB8F
:1032000001214DF21440FDF77DFB82214DF2154066
:10321000FDF778FB01214DF21640FDF773FBCA2143
:103220004DF21740FDF76EFB02214DF21840FDF7FD
:1032300069FB00214DF21940FDF764FB02214DF2BC
:103240001A40FDF75FFB00E000E301214DF21B4057
:10325000FDF758FB02214DF21C40FDF753FB3421D2
:103260004DF21D40FDF74EFB02214DF21E40FDF7D1
:1032700049FB67214DF21F40FDF744FB02214DF24F
:103280002040FDF73FFB84214DF22140FDF73AFB42
:1032900002214DF22240FDF735FBA4214DF22340DF
:1032A000FDF730FB02214DF22440FDF72BFBB72147
:1032B0004DF22540FDF726FB02214DF22640FDF799
:1032C00021FBCF214DF22740FDF71CFB02214DF2DF
:1032D0002840FDF717FBDE214DF22940FDF712FBD8
:1032E00002214DF22A40FDF70DFBF2214DF22B4059
:1032F000FDF708FB02214DF22C40FDF703FBFE21F8
:103300004DF22D40FDF7FEFA03214DF22E40FDF760
:10331000F9FA10214DF22F40FDF7F4FA03214DF296
:103320003040FDF7EFFA33214DF23140FDF7EAFA74
:1033300003214DF23240FDF7E5FA6D214DF23340A5
:10334000FDF7E0FA00214FF45540FDF7DBFA332199
:103350004DF20150FDF7D6FA00214DF20250FDF773
:10336000D1FA34214DF20350FDF7CCFA00214DF291
:103370000450FDF7C7FA3A214DF20550FDF7C2FAA5
:1033800000214DF20650FDF7BDFA4A214DF20750DB
:10339000FDF7B8FA00214DF20850FDF7B3FA5C21B1
:1033A0004DF20950FDF7AEFA00214DF20A50FDF73B
:1033B000A9FA81214DF20B50FDF7A4FA00214DF23C
:1033C0000C50FDF79FFAA6214DF20D50FDF79AFA29
:1033D00000214DF20E50FDF795FAE5214DF20F5008
:1033E000FDF790FA01214DF21050FDF78BFA1321F1
:1033F0004DF21150FDF786FA01214DF21250FDF702
:1034000081FA54214DF21350FDF77CFA01214DF25F
:103410001450FDF777FA82214DF21550FDF772FA3C
:1034200001214DF21650FDF76DFACA214DF21750E9
:10343000FDF768FA02214DF21850FDF763FA0021FA
:103440004DF21950FDF75EFA02214DF21A50FDF7C8
:1034500059FA01214DF21B50FDF754FA02214DF2A9
:103460001C50FDF74FFA34214DF21D50FDF74AFA7A
:1034700002214DF21E50FDF745FA67214DF21F5013
:10348000FDF740FA02214DF22050FDF73BFA84216E
:103490004DF22150FDF736FA02214DF22250FDF790
:1034A00031FAA4214DF22350FDF72CFA02214DF2FE
:1034B0002450FDF727FAB7214DF22550FDF722FAE7
:1034C00002214DF22650FDF71DFACF214DF2275073
:1034D000FDF718FA02214DF22850FDF713FADE210C
:1034E0004DF22950FDF70EFA02214DF22A50FDF758
:1034F00009FAF2214DF22B50FDF704FA02214DF2A8
:103500002C50FDF7FFF9FE214DF22D50FDF7FAF991
:1035100003214DF22E50FDF7F5F910214DF22F50F9
:10352000FDF7F0F903214DF23050FDF7EBF93321AF
:103530004DF23150FDF7E6F903214DF23250FDF71F
:10354000E1F96D214DF23350FDF7DCF900214FF424
:103550005640FDF7D7F933214DF20160FDF7D2F95E
:1035600000214DF20260FDF7CDF934214DF20360E8
:10357000FDF7C8F900214DF20460FDF7C3F93A21C7
:103580004DF20560FDF7BEF900214DF20660FDF732
:10359000B9F94A214DF20760FDF7B4F900214DF267
:1035A0000860FDF7AFF95C214DF20960FDF7AAF95B
:1035B00000214DF20A60FDF7A5F981214DF20B6063
:1035C000FDF7A0F900214DF20C60FDF79BF9A62153
:1035D0004DF20D60FDF796F900214DF20E60FDF7FA
:1035E00091F9E5214DF20F60FDF78CF901214DF2C3
:1035F0001060FDF787F913214DF21160FDF782F994
:1036000001214DF21260FDF77DF954214DF2136056
:10361000FDF778F901214DF21460FDF773F982216D
:103620004DF21560FDF76EF901214DF21660FDF7C0
:1036300069F9CA214DF21760FDF764F902214DF2D4
:103640001860FDF75FF900214DF21960FDF75AF996
:1036500002214DF21A60FDF755F901214DF21B6070
:10366000FDF750F902214DF21C60FDF74BF93421B2
:103670004DF21D60FDF746F902214DF21E60FDF787
:1036800041F967214DF21F60FDF73CF902214DF22F
:103690002060FDF737F984214DF22160FDF732F902
:1036A00002214DF22260FDF72DF9A4214DF2236095
:1036B000FDF728F902214DF22460FDF723F9B72127
:1036C0004DF22560FDF71EF902214DF22660FDF74F
:1036D00019F9CF214DF22760FDF714F902214DF2BF
:1036E0002860FDF70FF9DE214DF22960FDF70AF998
:1036F00002214DF22A60FDF705F9F2214DF22B600F
:10370000FDF700F902214DF22C60FDF7FBF8FE21D8
:103710004DF22D60FDF7F6F803214DF22E60FDF716
:10372000F1F810214DF22F60FDF7ECF803214DF276
:103730003060FDF7E7F833214DF23160FDF7E2F834
:1037400003214DF23260FDF7DDF86D214DF233605B
:10375000FDF7D8F855212046FDF7D4F8AA212846D0
:10376000FDF7D0F852213046FDF7CCF80821384655
:10377000FDF7C8F800216046FDF7C4F8CC214846A3
:10378000FDF7C0F800215046FDF7BCF80521404682
:10379000FDF7B8F870214FF43740FDF7B3F870210A
:1037A0004BF20170FDF7AEF801214FF43840FDF700
:1037B000A9F803214BF60100FDF7A4F803214BF60D
:1037C0000200FDF79FF803214BF60300FDF79AF87E
:1037D00002214FF43C40FDF795F800214BF60140E3
:1037E000FDF790F800214BF60240FDF78BF8D02151
:1037F0004FF44940FDF786F802214CF60110FDF721
:1038000081F850214CF60210FDF77CF850214CF65F
:103810000310FDF777F850214CF60410FDF772F80D
:1038200000214FF45450FDF76DF855214FF46850C6
:10383000FDF768F84FF48850FDF722F8782000F083
:10384000D9FC4FF42450FDF71BF87CE15045FCD126
:10385000E220FDF715F8FC4C4FF4807727616515E1
:103860006561DFF8E8831D21C8F8001080266661D5
:1038700026612561276165610220C8F80000666144
:1038800026612561276165610421C8F80010666121
:1038900026612561642000F0ADFCE020FCF7F0FF1C
:1038A000276165614FF00109C8F8009066612661E3
:1038B00025610A2000F0B6FCE020FCF7E1FF27615B
:1038C00065614FF0030AC8F800A0666126612561B2
:1038D0000C2000F0A7FC0120FCF7D2FF0A2000F02A
:1038E000A1FCE620FCF7CCFF276165612F21C8F819
:1038F000001066612661256127616561FF21C8F8B6
:10390000001066612661256127616561C8F80010B5
:10391000666126612561B020FCF7B2FF2761656111
:103920002021C8F800106661266125612761656164
:103930004FF0000CC8F800C0666126612561276160
:103940006561C8F800A0666126612561276165612F
:1039500040F21F31C8F800106661266125612761B9
:103960006561C8F80090666126612561276165611F
:1039700040F2DF11C8F800106661266125612761F9
:103980006561C8F800C0666126612561B420FCF756
:1039900077FF276165610420C8F800006661266131
:1039A00025612761656140F21F414046C8F800105B
:1039B00066612661256127616561C8F800C066619E
:1039C00026612561276165612E21C8F800106661B6
:1039D0002661256127616561C0F800C066612661C6
:1039E000256127616561C0F800C0666126612561B7
:1039F00027616561C0F800C06661266125612761A5
:103A00006561C0F800C0666126612561B620FCF7DB
:103A100037FF276165610220C8F8000066612661F2
:103A20002561276165614FF403714046C8F80010B5
:103A300066612661256127616561C8F800C066611D
:103A400026612561276165611721C8F8001066614C
:103A50002661256127616561152101606661266126
:103A6000256127616561C0F800C066612661256136
:103A700027616561C0F800C0666126612561F0209C
:103A8000FCF7FEFE27616561C8F800A0666126614B
:103A900025612920FCF7F4FED020FCF7F1FE276118
:103AA0006561C8F800C0666126612561BE20FCF72B
:103AB000E7FE276165610521C8F80010666126618F
:103AC000256127616561FE21C8F8001066612661E5
:103AD000256127616561C8F80090666126612561EE
:103AE00027616561C8F800C06661266125612761AC
:103AF0006561C8F800C0666126612561276165615E
:103B0000C8F800C0666126612561B820FCF7B8FEE0
:103B100027616561C8F800A066612661256127619B
:103B20006561C8F80090666126612561BA20FCF7DE
:103B3000A7FE27616561C8F800906661266125616E
:103B40006420FDF7B5FA0020FDF704FB4049012091
:103B5000C1F8A8015846FDF78FFCBDE8F88F2DE9A4
:103B6000FF4F984600980C46101A401C86B24FF43E
:103B7000807B354F4FF400794FF0800A0D9D18E09F
:103B800021460098FCF7EEFEFCF7D3FE0020DC4651
:103B90004A462E4B514608E0C7F810C07A611D60B6
:103BA000796139613A61401C80B2B042F4D3641C3F
:103BB000A4B24445E4D9BDE8FF8F2DE9F04F834618
:103BC000A2EB0B00401C894685B2A3EB0900401C08
:103BD0001FFA80FA0024099E21E009EB040081B25B
:103BE0005846FCF7BFFEFCF7A4FE174900204B1512
:103BF0004FF48078154A80270DE0C1F810804B61A2
:103C000004FB050C36F81CC0C2F800C04F610F6100
:103C10000B61401C80B2A842EFD3641CA4B254458F
:103C2000DBD3BDE8F08F2DE9FE4F0026A2EB0008A4
:103C300082465F1A701E35468946B8F1000F09DDCD
:103C40004FF0010109E00000001001400C0C0140A0
:103C50000000224203D14FF00001019102E0C8F1BF
:103C600000080190002F02DD4FF0010002E003D1B7
:103C70004FF00000009002E0C7F1000700904046BE
:103C8000B84501DD044600E03C46601C4FF0000BE7
:103C9000029015E01FFA89F11FFA8AF0FDF707F983
:103CA00046443D44A64202DD0199361B8A44A542A2
:103CB00002DD00992D1B89440BF101001FFA80FBE6
:103CC00002998B45E6DDBDE8FE8FF0B51C46154632
:103CD0000E4607460B46FFF7A6FF3A4623463146F7
:103CE0001046FFF7A0FF23462A4619463846FFF73D
:103CF0009AFF2A4623463146BDE8F040104692E737
:103D00002DE9FC4F80460024154603200F46A0EB0A
:103D1000450649E0781B81B208EB040A01901FFABE
:103D20008AF0FDF7C4F8381B81B208EB0509009052
:103D30001FFA89F0FDF7BBF807EB040B1FFA8BF1B4
:103D40001FFA89F0FDF7B3F807EB05091FFA89F1AF
:103D50001FFA8AF0FDF7ABF8A8EB040A1FFA89F105
:103D60001FFA8AF0FDF7A3F8A8EB05091FFA8BF1FB
:103D70001FFA89F0FDF79BF8019881B21FFA8AF0CB
:103D8000FDF795F8009881B21FFA89F0FDF78FF8DA
:103D9000641C002E03DA06EB8406B61D04E0601BEB
:103DA00006EB80066D1E0A36AC42B3DDBDE8FC8F23
:103DB0002DE9F84F82461F460C468B46580700D027
:103DC000012000EBD70079084843203AC0B202F046
:103DD000FF090026009041E00C2F10D0102F12D0C8
:103DE000182F3ED1754909EBC90001EB80004FF057
:103DF0000008855D28060AD5714802880BE009EBAA
:103E000049007049F1E7704901EB0910EFE70A98A2
:103E100028B96B48428821465046FDF75CF8680691
:103E2000050E6A48641CA4B24088A04219D9A4EBCC
:103E30000B00B84209D10AF101001FFA80FA634869
:103E40005C46018851450CD906E008F1010000F0FC
:103E5000FF08B8F1080FCDD3761CF6B20098864261
:103E6000BAD37AE60346012000E05843491EC9B29E
:103E7000FBD270472DE9FF4F81B00027DDF838B045
:103E80001D46924680463C46B9464FEA5B0627E00F
:103E9000281B401EC1B20A20FFF7E4FFBAFBF0F076
:103EA0000A21B0FBF1F201FB120027B9691E8C4216
:103EB00001DA48B101273030C2B206FB048080B27B
:103EC0005B46CDF8009006E006FB048080B25B46BE
:103ED0002022CDF800900299FFF76AFF641CE4B23B
:103EE000AC42D5D305B09CE62DE9FF4F81B08046AA
:103EF000DDF83CA00E984FF000091F4693464C4653
:103F00000AF0010546082BE0381B401EC1B20A200A
:103F1000FFF7A8FFBBFBF0F00A21B0FBF1F201FBB9
:103F20001200B9F1000F05D1791E8C4202DA48B1B6
:103F30004FF001093030C2B206FB048080B2009518
:103F40000E9B08E05FEA0A6006FB04800E9B80B2CD
:103F5000009508D530220299FFF72AFF641CE4B2CD
:103F6000BC42D1D3BEE72022F5E72DE9F84F044645
:103F700000F0FF0810190D46DDE90A761FFA80FAF5
:103F800058191FFA80F94FF0000B11E0544502D385
:103F9000E819444685B24D450FD23B462946204696
:103FA000CDF800B0FFF704FF04EB570084B2761C95
:103FB0003278A2F120005E28E8D9CEE5BC92000854
:103FC0005E00002058880008CC8C0008F400002017
:103FD0007FB50D4604460121022000F099FCADF8A2
:103FE0000440ADF800500024374DADF80640ADF860
:103FF00002406946284600F0FDFE0122114628468F
:1040000001F0B5F91D218DF80C1004208DF80D007C
:104010008DF80E4001208DF80F0003A800F0DDF9A7
:104020000121284601F08EF97FBD7FB50D4604467B
:104030000121082000F06CFCADF80440ADF8005000
:104040000024224DADF80640ADF8024069462846EE
:1040500000F0D0FE01221146284601F088F93221F5
:104060008DF80C1005208DF80D008DF80E40012004
:104070008DF80F0003A800F0B0F90121284601F0E7
:1040800061F97FBD10B5104C0121204601F083FB82
:10409000012802D10EA003F0D5FF2046BDE8104054
:1040A000012101F084BB10B5084C0121204601F02C
:1040B00072FB012802D10BA003F0C4FF2046BDE82B
:1040C0001040012101F073BB00040040000C0040CF
:1040D00054494D33CAE4B3F62E2E2E2E2E2E2E0D1D
:1040E0000A00000054494D35CAE4B3F62E2E2E2E98
:1040F0002E2E2E0D0A0000003EB50121084600F0CC
:10410000FEFBFCF73DFB0521022000F0C4FA202055
:10411000002500908DF804500C208DF80500012436
:104120008DF80640684601F053FB17208DF8080013
:1041300006208DF809008DF80A508DF80B4002A872
:1041400000F04BF93EBD10B5142000F084F820219A
:104150000C4800F042FA80B90B48006802F0F0FC0D
:1041600004460AA003F06EFF012C06D10C4920077B
:104170000860BFF34F8FBFF36F8FBDE81040202062
:1041800001F084BB001001400C000020BBD6B8B485
:10419000C8CECEF132B5C4D4CBD0D0210D0A0000A8
:1041A00004ED00E010B502F05DFF012803D0BDE88A
:1041B000104003F0DABD10BD10B5042000F04DF939
:1041C0002B482C492C4A0068B0FBF1F3B0FBF1F10D
:1041D0004FF47A7041431370012050804FF0E0207B
:1041E000026942F0020202614161016941F001018C
:1041F000016110BD70B54FF0E02500216C691E4AC9
:10420000AB6912785043AA699A42FCD002D2A3EB60
:10421000020302E0A4EB0206334419441346814230
:10422000F1D370BD70B5044602F01CFF01280CD01C
:10423000114D6888844203D3B4FBF0F002F0EAFA2F
:104240006888B4FBF0F100FB11444FF47A706043CE
:10425000BDE87040CEE770B5054600244FF47A768D
:1042600003E03046FFF7C6FF641CAC42F9D370BDD3
:104270004800002040420F00620000207047404983
:104280000A885206FCD53E4AC1B2121D1180704701
:1042900070B5054686B0012144F2040000F02FFB02
:1042A0004FF40070ADF8100003248DF81240182070
:1042B000344E8DF8130004A9304600F038F930155B
:1042C000ADF8100004208DF8130004A9304600F06A
:1042D0002EF925208DF814008DF815408DF8164024
:1042E00001208DF8170005A800F077F80020ADF840
:1042F0000400ADF80600ADF80800ADF80C000C2085
:104300001F4CADF80A0000956946204600F076FB88
:10431000012240F22551204600F0EDFB012120460C
:1043200000F0DFFB06B070BD70B5154C40F22551B2
:10433000204600F097FC00280ED0204600F02BFC11
:10434000114AC1B21088030406D444044FF000039C
:1043500006D50A2901D0138070BD40F400400DE05D
:104360000D2909D0C0F30D04084D401C80B2295519
:104370001080C728EFD870BD40F48040108070BD19
:1043800000380140000801406600002002010020C2
:104390000948804709480047FEE7FEE7FEE7FEE7D9
:1043A000FEE7FEE7FEE7FEE7FEE7FEE70448054915
:1043B000054A064B704700007506000831010008E9
:1043C00078550020785B002078570020785700202F
:1043D0002849084328490860704730B50F23C27840
:1043E00001780125F2B1244A126801F1E02102F4BA
:1043F000E062C2F5E062120AC2F10404D3404278DE
:10440000A24084781C401443220181F800240078E3
:1044100000F01F018D404009800000F1E020C0F84D
:10442000005130BD01F01F0085404809800000F1B7
:10443000E020C0F8805130BD104A114001430E48C1
:10444000001F016070470C4A121D0029116801D03D
:10445000014300E08143116070474FF0E0210428E0
:10446000086903D020F004000861704740F00400A0
:10447000FAE700000000FA050CED00E080FFFF1FE6
:104480008F4910B5884206D10121042000F049FA75
:10449000002104203BE08B49884206D101210820FD
:1044A00000F03FFA0021082031E08749884206D118
:1044B0000121102000F035FA0021102027E0834967
:1044C000884206D10121202000F02BFA0021202073
:1044D0001DE07F49884206D10121402000F021FAE9
:1044E0000021402013E07B49884206D10121802031
:1044F00000F017FA0021802009E0774988420AD1AC
:1045000084150121204600F00CFA00212046BDE868
:10451000104000F006BA10BD10B50121084600F0A9
:1045200000FA0021BDE81040012000F0FAB9F0B512
:10453000CC78002204F00F03E40601D58C782343E5
:104540000C784FF00F0C14F0FF0F4FF0010E1BD042
:1045500005680E880EFA02F42640A64210D1960095
:104560000CFA06F725EA070703FA06F5CE783D436D
:10457000282E02D0482E02D002E0446100E00461FF
:10458000521C082AE5D305600A88FF2A1CD9446812
:10459000002202F108060EFA06F50E882E40AE4201
:1045A0000ED196000CFA06F7BC4303FA06F7CE7854
:1045B0003C43282E00D14561CE78482E00D10561BC
:1045C000521C082AE5D34460F0BD4FF6FF7101800C
:1045D000022181700421C170704702460020926858
:1045E0000A4200D001207047806880B270470246BE
:1045F0000020D2680A4200D001207047C06880B213
:10460000704701617047416170470AB101617047AD
:1046100041617047C160704741F4803282618161BD
:1046200082618169806970472C4B10B51A684FF61A
:104630008074224042EA00100843186010BD2849E7
:10464000C8617047F0B5254C002801DAE36900E045
:104650006368450D2E0185B2C0F30157B540C0F324
:104660000342032F05D0C6020AD503269640B34362
:1046700007E023F07062636823F07063636002E018
:10468000AB4343F0706201B12A43002801DAE261D2
:10469000F0BD6260F0BD10B58A0721F003040F4938
:1046A000120F21440F238C6893409C438C608B68CD
:1046B000904003438B6010BD0949C1F8DC0070478E
:1046C00000080140000C01400010014000140140AE
:1046D00000180140001C0140002001400000014082
:1046E00000002042A548016841F0010101604168D5
:1046F000A34A114041600168A24A1140016001686B
:1047000021F480210160416821F4FE0141604FF4F1
:104710001F018160704799490A6822F480320A605B
:104720000A6822F480220A60B0F5803F07D0B0F515
:10473000802F03D1086840F4A02008607047086803
:1047400040F48030F9E70346002059098B4A0129DB
:104750000AD002290AD0516A03F01F0201239340B4
:104760000B4200D0012070471168F5E7116AF3E7AA
:1047700018B500204FF4A06400903120FFF7E3FF4C
:104780000099491C0091A14201D00028F5D03120A8
:10479000FFF7D9FF002800D0012018BD774A116823
:1047A00021F0F80141EAC0001060704776490860C6
:1047B0007047724B5A68084322F47C1210435860C9
:1047C00070477149086670476C4A516821F00301CF
:1047D0000143516070476948406800F00C00704721
:1047E000664A516821F0F001014351607047634A05
:1047F000516821F4E0610143516070475F4A51689C
:1048000021F4605141EAC000506070475B4A0029C2
:10481000517A01D0014300E08143517270475A49F7
:10482000C1F8D8007047554A516821F4404101430E
:10483000516070475149002281F8202081F82020E2
:10484000012802D0042802D1052081F820007047F9
:104850004E490860704749490A6A02430A62704734
:104860004A4944390860704730B5444A5168484B5A
:1048700011F00C0103D0042901D0082901D00360F4
:1048800012E05168536801F470114FF0020413F400
:10489000803F04EB914102D053689B0301D53D4B0F
:1048A00000E03B4B5943016051680F2303EA1111AB
:1048B000394B5C5C0168E14041605468072505EABA
:1048C00014241C5D21FA04F48460546805EAD4249D
:1048D0001B5DD940C1605268032303EA92322E4B1C
:1048E0001B1F9A5CB1FBF2F1016130BD234A002924
:1048F000516901D0014300E08143516170471F4A73
:104900000029916901D0014300E081439161704722
:104910001A4A0029D16901D0014300E08143D161E5
:104920007047164A0029D16801D0014300E0814355
:10493000D1607047114A0029116901D0014300E09C
:1049400081431161704711494039086070470E4931
:10495000C86470470949C87170470848416A41F006
:10496000807141627047054A0146002092680A4200
:1049700000D0012070470149887270470010024042
:104980000000FFF8FFFFF6FE0000424280044242B2
:1049900000127A0000093D0070000020C44910B5E3
:1049A00088420AD101218C032046FFF7BAFF204636
:1049B000BDE810400021FFF7B4BFBE49884202D1D4
:1049C00001214C0410E0BC49884202D101218C0431
:1049D0000AE0BA49884202D10121CC0404E0B84976
:1049E00088420AD101210C052046FFF7A3FF20468B
:1049F000BDE810400021FFF79DBF10BD30B5044653
:104A0000008A85B00D464CF6FF710840E9880143E5
:104A10002182A0894EF6F3110840A9882A89114302
:104A20006A8902431143A181A08A4FF6FF410840E1
:104A3000A9890143A1826846FFF716FF9C4884427A
:104A400001D1039800E00298A189090400EBC0019C
:104A500001EB0010296801D5490000E08900B0FB96
:104A6000F1F06422B0FBF2F109010B096FF01805B7
:104A70006B4300EB8300A3891D044FF0320306D57E
:104A800003EBC000B0FBF2F000F0070005E003EB21
:104A90000010B0FBF2F000F00F000843208105B0D9
:104AA00030BD4FF41651016000218180C180018129
:104AB0000C2242818181704710B5028A4FF2FF03B8
:104AC0001A400B884C8823438C88C9880C432343A5
:104AD0001343038210BD0021018041808180C18089
:104AE00070470029818902D041F4005101E021F48E
:104AF00000518181704710B5C1F3421301F01F04CA
:104B00000121A140012B07D0022B07D01430002A2D
:104B1000026805D00A4304E00C30F8E71030F6E7ED
:104B20008A43026010BD002A828A01D00A4300E055
:104B30008A4382827047028A22F00F020282028A2E
:104B40000A4302827047828922F40062828182894C
:104B50000A43828170470029818902D041F0020115
:104B600001E021F0020181817047028A22F02002D7
:104B70000282028A0A43028270470029018A02D017
:104B800041F4804101E021F4804101827047C1F38A
:104B90000801818070478088C0F3080070478189D0
:104BA00041F0010181817047028BD2B20283028BF6
:104BB00042EA012101837047028B02F47F420283A3
:104BC000028B0A43028370470029818A02D041F098
:104BD000200101E021F02001818270470029818AB3
:104BE00002D041F0100101E021F0100181827047F4
:104BF0000029818A02D041F0080101E021F008017A
:104C0000818270470029818902D041F4004101E08E
:104C1000C1F30E01818170470029818A02D041F4DD
:104C2000006101E021F4006181827047828A22F0F4
:104C300004028282828A0A43828270470029818A22
:104C400002D041F0020101E021F0020181827047AF
:104C50000246002012880A4200D001207047C94352
:104C60000180704770B501F01F0501260024C1F3D3
:104C7000421306FA05F2012B0FD0022B0FD0838AC4
:104C80004FEA11210088134206FA01F600EA0600F5
:104C900001D000B10124204670BD8389F0E7038A6A
:104CA000EEE70A0A01219140C943018070470000E4
:104CB000003801400044004000480040004C0040E3
:104CC00000500040F94910B5884202D10121C414B6
:104CD00086E0B0F1804F09D0F54988420DD101211D
:104CE0000220FFF727FE0021022064E00121084690
:104CF000FFF720FE002101205DE0EE49884206D149
:104D000001210420FFF716FE0021042053E0EA49A8
:104D1000884206D101210820FFF70CFE002108205F
:104D200049E0E649884206D101211020FFF702FE42
:104D3000002110203FE0E249884206D101212020D5
:104D4000FFF7F8FD0021202035E0DE49884202D13E
:104D50000121441444E0DC49884202D10121CC0401
:104D60003EE0DA49884202D101210C0538E0D849F9
:104D7000884202D101214C0532E0D649884206D151
:104D800001214020FFF7D6FD0021402013E0D24949
:104D9000884206D101218020FFF7CCFD0021802030
:104DA00009E0CE4988420AD1841501212046FFF747
:104DB000C1FD00212046BDE81040FFF7BBBDC8493A
:104DC000884202D101210C040AE0C649884202D17E
:104DD00001214C0404E0C44988420AD101218C0419
:104DE0002046FFF79EFD2046BDE810400021FFF75A
:104DF00098BD10BD30B50288AC4CB24DA0420DD06C
:104E0000A8420BD0B0F1804F08D0A94B984205D0F2
:104E1000A84B984202D0A84B984203D122F07003CD
:104E20004A881A43A54B984206D0A54B984203D016
:104E300022F44073CA881A4302808A8882850A88CD
:104E40000285A0420AD0A84208D0A54A904205D0C7
:104E5000A44A904202D0A44A904201D1097A018624
:104E60000121818230BD30B5028C22F00102028422
:104E7000028C8388048B22F0020224F073050C88D4
:104E80002C430D8915434A882A43884DA8420BD0EC
:104E90008C4DA84208D0924DA84205D0914DA84211
:104EA00002D0914DA8420DD122F008054A8923F481
:104EB00040732A4322F004058A882A438D891D43C2
:104EC000CB892B4383800483C9888186028430BDCB
:104ED00070B5028C22F010020284028C8388048B4D
:104EE0000D8824F4E6464FF6FF7404EA05253543A1
:104EF0000E8922F0200204EA061616434A8804EAC4
:104F000002123243694EB04202D06E4EB04215D109
:104F100022F080064A8923F4406304EA02123243F5
:104F200022F040068A8804EA021232438E8904EA9B
:104F300086061E43CB8904EA8303334383800583BB
:104F4000C9880187028470BD70B5028C22F480721A
:104F50000284028C8388848B0D8824F0730425439B
:104F60000E894FF6FF7422F4007204EA06261643F7
:104F70004A8804EA022232434C4EB04202D0514EDB
:104F8000B04215D122F400664A8923F4405304EA62
:104F90000222324322F480668A8804EA02223243E3
:104FA0008E8904EA06161E43CB8904EA03133343B1
:104FB00083808583C9888187028470BD70B5028C27
:104FC00022F480520284058C8288838B0C8823F41F
:104FD000E6464FF6FF7303EA0424344325F40056F3
:104FE0000D8903EA053535434E8803EA06362E431C
:104FF0002E4DA84202D0334DA84205D122F480455F
:105000008A8903EA82122A4382808483C988A0F8AD
:105010004010068470BD828B22F440628283828BB2
:105020004FF6FF7303EA01210A4382837047828BA4
:1050300022F00C028283828B0A4382837047028BA8
:1050400022F440620283028B4FF6FF7303EA0121D0
:105050000A4302837047F0B5048C24F010040484E2
:10506000078B048C4FF6FF7527F4734705EA03336B
:105070003B4305EA02221A430C4B05EA011698420B
:105080000ED0104B98420BD0B0F1804F08D0084B97
:10509000984205D0074B984202D0074B984225D141
:1050A00024F02001314341F0100124E0002C0140A4
:1050B0000004004000080040000C004000100040C8
:1050C0000014004000340140004C014000500140F9
:1050D0000054014000180040001C00400020004027
:1050E00000400140004401400048014024F0A0037A
:1050F0000B4343F0100102830184F0BD028B22F0C8
:105100000C020283028B0A430283704770B5048C41
:1051100024F001040484058B048C4FF6FF7606EA24
:105120000313134325F0F305F84A2B4390420ED0A6
:10513000F74A90420BD0B0F1804F08D0F54A904228
:1051400005D0F54A904202D0F44A904202D124F0B0
:10515000020201E024F00A020A4342F00101038343
:10516000018470BD2DE9F84F0D4604460888E74FCD
:10517000DFF89CC3DFF89C83DFF89C934988AA88FA
:105180002B894FF0804A48B304282FD04FF6FF7682
:105190000828934632D0208C9E4620F480502084EC
:1051A000A38B208C06EA0132009223F4734306EAB3
:1051B0000B221A4306EA0E331343BC420AD064455D
:1051C00008D0544506D0444504D04C4502D0D34ABB
:1051D000944242D120F40050009940E02046FFF76D
:1051E00095FFE9882046BDE8F84F87E72046FFF79E
:1051F00032FFE9882046BDE8F84F20E7208C20F4F4
:1052000080702084B4F81CE0208C06EA031306EAC0
:1052100001222EF0F30E43EA0B0343EA0E03009241
:10522000BC420AD0644508D0544506D0444504D059
:105230004C4502D0B94A944203D120F40070009941
:1052400001E020F42060084340F48070A3832084B0
:10525000E9882046BDE8F84FE9E620F4024008431B
:1052600040F48050A3832084E9882046BDE8F84FAD
:10527000D1E62DE9F0410C46002649880746012574
:1052800001B90226A288012A00D10225208823899B
:105290000028384610D0FFF7DEFEE1883846FFF7D9
:1052A000CEFE23892A4631463846FFF72FFFE18894
:1052B0003846BDE8F04121E7FFF728FFE18838468E
:1052C000FFF71CFF23892A4631463846FFF7C3FE05
:1052D000E1883846BDE8F041B1E610B50A884B8850
:1052E000CC881A438B8823431A430B891A434B8972
:1052F00089891A430A43A0F8442010BD4FF6FF7174
:10530000818000210180C1804180017270470021AD
:10531000018041808180C180018141818181C18181
:10532000704700210180418001228280C18001817B
:1053300070470021018041808180C18001814181CD
:10534000818170470029018802D041F0010101E00C
:1053500021F0010101807047002930F8441F02D07C
:1053600041F4004101E0C1F30E0101807047002AC1
:10537000828901D00A4300E08A438281704781829A
:1053800070471143A0F848107047002A828901D065
:105390000A4300E08A4382817047018921F00701B6
:1053A00001817047028922F070020A43028170472E
:1053B00000B50346FFF7F6FF188940F00700188193
:1053C00000BD70B516460D46602904464FF0010237
:1053D00031460AD0FFF79AFE29462046FFF7E2FF42
:1053E000208940F00700208170BDFFF734FEF3E70D
:1053F00030B504894FF6FF7505EA03231343E4B281
:105400000B432343038130BD10B50446FFF7F0FF83
:10541000208940F07700208110BD10B50446FFF7C9
:10542000E7FF208940F48040208110BD0185828201
:105430007047028822F070020A430280704770B5FC
:105440000589048B068C25F007050D434FF6FC41BA
:105450000C4040F201110C434FF6FF7101EA0311B9
:1054600026F022061143314305810483018470BD77
:10547000028B22F070020A4302837047028B4FF6C0
:10548000FF7322F4E04203EA0121114301837047D4
:10549000828B22F070020A4382837047828B4FF620
:1054A000FF7322F4E04203EA012111438183704734
:1054B0000029018802D041F0800101E021F0800143
:1054C000018070470029818802D041F0040101E089
:1054D00021F00401818070470029818802D041F0C9
:1054E000080101E021F008018180704700298188CE
:1054F00002D041F0010101E021F0010181807047FB
:10550000028B22F008020A4302837047002C0140FC
:10551000003401400004004000080040000C00403E
:10552000028B4FF6FF7322F4006203EA012111435C
:105530000183EAE7828B22F008020A438283E4E7D0
:10554000828B4FF6FF7322F4006203EA01211143BC
:105550008183DAE7028B22F004020A430283D4E754
:10556000028B4FF6FF7322F4806203EA012111439C
:105570000183CAE7828B22F004020A438283C4E7D4
:10558000828B4FF6FF7322F4806203EA01211143FC
:105590008183BAE7028B22F080020A430283B4E7D8
:1055A000028B4FF6FF73C2F30E0203EA012111438F
:1055B0000183AAE7828B22F080020A438283A4E758
:1055C000828B4FF6FF73C2F30E0203EA01211143EF
:1055D00081839AE7028C22F002020A43028494E754
:1055E000028C22F008020A4302848EE7028C4FF6F6
:1055F000FF7322F0200203EA01111143018484E7C2
:10560000028C4FF6FF7322F0800203EA011111436E
:1056100001847AE7028C4FF6FF7322F4007203EAEA
:1056200001211143018470E7028C4FF6FF7322F4CD
:10563000006203EA01211143018466E7028C4FF600
:10564000FF7322F4005203EA0131114301845CE745
:1056500010B50123048C8B409C430484038C8A4046
:105660001343038410BD10B50423048C8B409C436A
:105670000484038C8A401343038410BD30B5012495
:10568000058C00F118038C40A543058489B10829D5
:105690000FD0091FC1F34E001844016821F4E04106
:1056A000016001684FF6FF7303EA022211430160B3
:1056B00030BD03EB5100016821F070010160016809
:1056C000F4E70029018802D041F0020101E021F055
:1056D0000201018019E70029018802D041F004018C
:1056E00001E021F0040101800FE70029818802D048
:1056F00041F0800101E021F08001818005E702880E
:1057000022F00802028002880A430280FDE68288B5
:1057100022F07002828082880A438280F5E6028944
:1057200022F00702028102890A430281EDE6028922
:1057300022F08002028102890A430281E5E6818427
:10574000E3E68185E1E68186DFE60187DDE68187A4
:10575000DBE6A0F84010D8E6028822F4407202800E
:1057600002880A430280D0E6808ECEE6008FCCE627
:10577000808FCAE6B0F84000C7E6808CC5E6008D91
:10578000C3E602460020128A0A4200D00120BCE68D
:10579000C9430182B9E602460020138A92890B426E
:1057A00002EA010202D0002A00D00120ADE6C9437E
:1057B0000182AAE6374900200860091D0860091D1A
:1057C0000860091D08603349334814310860704788
:1057D00030B5304A8379016853B313688B43136043
:1057E000111D0B680468A3430B60017911440B6819
:1057F000046823430B60274B083319680468A143EE
:1058000019601C1D21680568A94321604179102990
:1058100005D011440A68006802430A6030BD196867
:10582000026811431960216800680143216030BD9E
:105830000079104402688A43026030BD0021016093
:1058400001710C22427181717047124910310A684E
:1058500002430A60704701460E4A00201432126863
:105860000A4200D0012070470A491431086070478D
:10587000084A014600201268064B0A4014331B6890
:105880000B4202D0002A00D0012070470149143198
:105890000860704700040140FFFF0F0000F108019D
:1058A0004FF0FF32C0E90112C160016100210160C7
:1058B000704700210161704742684A6093688B60BD
:1058C00093685960916008610168491C01607047E4
:1058D00030B50C68621C02D000F1080202E00269D7
:1058E00004E01A4653681D68A542FAD953684B6014
:1058F00099608A60516008610168491C016030BD8F
:10590000D0E9013201699A60D0E901235A604A68FE
:10591000824201D182684A60002202610868401E0A
:105920000860704770B50D46040005D140F21B12A7
:10593000F2A1F7A002F086FB02F0ECF9D4E90F2007
:10594000216802FB001161600021A1632168A16050
:105950000A46D4E90F01401E00FB0121E160214607
:105960004FF0FF3001F8440F487004F110004DB1C2
:10597000FFF794FF04F12400FFF790FF02F0E4F931
:10598000012070BD21690029F8D001F0A3FA002898
:10599000F4D0E3494FF080500860BFF34F8FBFF35E
:1059A0006F8FEBE72DE9F04117460E46050005D154
:1059B0004FF4C472D1A1D6A002F044FBBEB105FBE6
:1059C00006F0543002F056FA04000ED004F15400F0
:1059D0007EB12060C4E90F5620460121FFF7A2FFE7
:1059E00084F8507000212046A164BDE8F0810020B9
:1059F000E7E72460EEE72DE9F041856B17460446A2
:105A00000026026C82B1C7B1E06802F044FCE16894
:105A1000206C091AE1602268914202D26168081A7A
:105A2000E060022F16D017E02068A8B9606801F086
:105A300062FB0646002060600EE0A06802F02BFCCE
:105A4000216CA0680844A0606168884204D3206883
:105A5000A06001E005B16D1E6D1CA5633046C4E772
:105A60002DE9F3410F4600980026846C2CB940F6CE
:105A7000CE12A2A1A6A002F0E5FAA06BE16B8842CB
:105A800005D340F6CF129DA1A1A002F0DBFAA06BD6
:105A9000E16B88420CD294F945503A46694620465B
:105AA000FFF7A9FF0646681C05D06D1C84F8455019
:105AB0003046BDE8FC81606A0028F9D004F124007A
:105AC00001F008FA0028F3D00126F1E72DE9F041B2
:105AD000044602F01FF994F9455004F1240610E041
